:020000040000FA
:1000000020350020F500000015010000D900000097
:1000100000000000000000000000000000000000E0
:1000200000000000000000000000000019010000B6
:1000300000000000000000001B010000A9220000D9
:100040001F0100001F0100001F0100001F01000030
:100050001F0100001F0100001F0100001F01000020
:100060001F0100001F0100001F0100001F01000010
:10007000F1250000012600001F0100001F01000003
:100080001F0100001F0100001F0100001F010000F0
:1000900021060000290700001F0100001F010000C9
:1000A0001F0100001F0100001F0100001F010000D0
:1000B0001F0100001F0100001F0100001F010000C0
:1000C0000448854600F0DCF8004800475D2F00003A
:1000D000C046C0462035002004207146084202D0A8
:1000E000EFF3098001E0EFF308807146004A104702
:1000F000651C00000A480B4901600B4901600B496F
:1001000001600B4A0B491160002101600A488047D9
:100110000A480047FEE7FEE7FEE7FEE7FEE7FEE7E8
:100120000001005059000000160000008800000087
:1001300024000050A55A0000B5240000C1000000B2
:1001400030B50B46014600202022012409E00D466F
:10015000D5409D4205D31D469540491B25469540F7
:1001600040191546521E002DF1DC30BD70B500243B
:100170002546002801DA01244042002901DA012540
:100180004942FFF7DDFFAC4200D04042002C00D0D6
:10019000494270BDF0B51FB40646002082B0054646
:1001A0004024019100901BE0019922460F46304601
:1001B00000F054F8049A059B801A994110D3104618
:1001C0001946224600F03AF8361A8F410197224626
:1001D00001200021009F00F031F838184D410090B7
:1001E0002046641E0028DFDC019B00982946324629
:1001F00007B0F0BD03460B439B0703D009E008C9D5
:10020000121F08C0042AFAD203E00B780370401CC6
:10021000491C521EF9D27047D2B201E00270401C54
:10022000491EFBD270470022F6E710B513460A4676
:1002300004461946FFF7F0FF204610BD10B5202AEE
:1002400004DB0146203A9140002010BD914020235C
:100250009C1A0346E3401943904010BD10B5202A74
:1002600004DB0846203AD040002110BD0B46D340A5
:10027000D0402024A21A91400843194610BD000026
:10028000064C0125064E05E0E36807CC2B430C3CE9
:1002900098471034B442F7D3FFF716FFE834000054
:1002A0000835000008B50B480078052810DB01F080
:1002B00071FF0849087008460078052808DA002010
:1002C000054B0122114600900248007801F0A0FF82
:1002D00008BD00007C00002021040000014672B629
:1002E00012224A43024BD218108A62B670470000AD
:1002F0007029002070B50546082D01DD002070BD75
:100300002846FFF7EBFF04461549614308461549A7
:10031000FFF716FF04462B0002F042FB0805070911
:100320000B0E11141619640013E0640011E0640050
:100330000FE0062044430CE00620444309E0062079
:10034000444306E000BF04E00A20444301E00024E7
:1003500000BF00BF0448844200D904462046CEE7CF
:10036000E40C0000FF0F0000FFFF000030B5046A3E
:10037000054D2C400C4314430462446A240A2402B1
:100380001C43446230BD0000F3FBFFFF10B5204862
:1003900040687F21090408431D4948600520000783
:1003A000006BC009C0010521090708630846006BFE
:1003B000FF2108430521090708631648006916490B
:1003C00008401449086108460069086108468069C8
:1003D000FF21F03188430F498861084680698861B0
:1003E000FF230C2200210D48FFF7C0FF0B48006AD5
:1003F0000121084309490862012008630846006A90
:100400000121C902084305490862FFF74BFF10BDEF
:100410000040005040000050FBF7E0FF00000E409D
:1004200070B50346002014E084001D4D6419246853
:10043000A5B2122444431B4EA4191B4E36787600F5
:10044000A553002512244443164EA4192582441CAA
:10045000E0B20828E8DB144C2478641C124D2C70A0
:100460002C462478082C01DB00242C70002013E09B
:10047000122444430B4D6119002206E00C8A5500FA
:100480004D5B64190C82541CE2B2082AF6DB0C8A1C
:10049000E4100C82441CE0B20828E9DB70BD0000C7
:1004A00000000E40702900207E00002008B537486B
:1004B00000F050FE002203210906344801F0EAF85A
:1004C00005200007406B3321884305210907486355
:1004D0000846406B33210843052109074863084655
:1004E000C06B03218903884305210907C8630846B7
:1004F000C06B03218903084305210907C863244809
:1005000001F0FAFDE1214902224802F0A5F800209D
:1005100003460322E121490200901E4802F0F8F848
:1005200001211C4802F07CF80D20012181401A4A6B
:10053000116000BF022101F01FFC16481749086036
:10054000002048608860C8604B20000201F08CFCED
:100550000E48401E00F0FEFD0022032109060B4854
:10056000401E01F097F80A48401E01F0C5FDE12148
:1005700049020B4802F070F8002003460322E121F3
:1005800049020090064802F0C3F808BD113D8057AB
:10059000110000040000154000E100E0D428002014
:1005A0000000054010B5184801F054FB0446012234
:1005B000042101F01DFB154801F04CFB044601220B
:1005C000082101F015FB124801F044FB044601220A
:1005D000402101F00DFB0F4801F03CFB04460022D6
:1005E0000121C90201F004FB01200B4988610B487D
:1005F00001F030FB04460122102101F0F9FA01203C
:1006000005494031086110BD0400020308000303DE
:100610004000060200080B00804200501000040356
:1006200010B52E4804690120C00384423BD12B48F9
:10063000406880210840002810D0284842680021E6
:1006400027A002F081F92548006841218843234909
:1006500008602949002001F05BF910BD1F4840687F
:1006600040210840002836D01C4840681821084026
:10067000002830D119484268002120A002F064F916
:100680001D48016801F099F91B480068002803D053
:10069000002000F0ADFA1EE01048006804218843F5
:1006A0000E49086017E0002C0BD021460B4800F0E3
:1006B0006DFA0A480069401EC1B2084800F01CF9F2
:1006C00009E01548C06A012805D114A002F03CF9E0
:1006D00000201149C86200BFBFE7000000001840B9
:1006E00043414E256420424F464620494E5428300F
:1006F0007825303278290A009400002043414E25A5
:100700006420455741524E20494E542830782530B8
:100710003278290A000000004001184057616B65DB
:100720002075700A0000000010B52F4804690120F0
:10073000C00384423ED12C484068802108400028F4
:1007400010D029484268012128A002F0FDF826486F
:10075000006841218843244908602A49012001F0AA
:10076000D7F810BD2048406840210840002839D003
:100770001D48406818210840002833D11A484268B3
:10078000012121A002F0E0F81E48001F4168001D71
:1007900001F013F91B48001F4068002803D0012016
:1007A00000F026FA1EE010480068042188430E4934
:1007B000086017E0002C0BD021460B4800F0E6F94A
:1007C00009480069401EC1B2074800F095F809E0E9
:1007D0001448C06A012805D113A002F0B5F8002022
:1007E0001049C86200BFBCE70040184043414E2595
:1007F0006420424F464620494E54283078253032F6
:1008000078290A009800002043414E25642045576E
:1008100041524E20494E5428307825303278290AEA
:10082000000000004041184057616B652075700A58
:10083000000000000246982080580123DB03184086
:10084000002800D17047506810239843506033232C
:10085000842083509420805801239B031840002853
:1008600006D1087094208058C004400D48600BE009
:100870000120087094208058C004C008486090206F
:1008800080584B6803434B609420805801235B03DE
:100890001840400B012358404870982080580007AA
:1008A000000F88709C20805808729C208058FF237D
:1008B0001B021840030A4B72A02080588872A020A7
:1008C0008058FF231B021840030ACB72A4208058D3
:1008D0000873A4208058FF231B021840030A4B739F
:1008E000A82080588873A8208058FF231B02184036
:1008F000030ACB730120A5E770B50022002311E0A5
:10090000046A0125ED032C40002C01D100220DE0EA
:10091000802424580125ED032C40002C01D1012214
:1009200004E05B1C01242407A342E9D300BF0C258B
:100930006024544306462036A41965604C1C60258B
:100940005543745170BD000010B500210CE0002328
:100950008200074CA258203253675A1E8301054C6F
:100960001B198C001A51491C1029F0D310BD00002E
:1009700080000020842A002010B504460E21204665
:1009800000F001F810BD10B503460C46184600F003
:100990003EF804202040002801D0042000E0002080
:1009A0000221084308212140002901D0082100E04C
:1009B00000210843196881431960184600F0DAF8ED
:1009C00010BD10B504460B46204600F020F8206804
:1009D000F121084002211940002901D0022100E044
:1009E0000021084304211940002901D0042100E01E
:1009F0000021084308211940002901D0082100E006
:100A0000002108432060204600F0B4F810BD0168C2
:100A100001221143016001684022114301607047C7
:100A2000026880231A4302604161704770B5044632
:100A30000D46012C00DD70BD2A4621463BA001F089
:100A400083FFA1003E4A5058FFF796FF2046FFF76C
:100A50007BFF002C2FD1002D26D03A4800F07AFBE6
:100A600005200007C06BC021884305210907C86322
:100A70000846C06BC021084305210907C86301214E
:100A8000142001F0B5F9142001F026F9A1002C4A38
:100A900050580022294600F0FDF8A100284A50587D
:100AA0000621FFF78EFF3FE0264800F01DFB1420D3
:100AB00001F008F938E0002D2FD02248401C00F04A
:100AC00049FB05200007C06B0321890388430521EA
:100AD0000907C8630846C06B032189030843052141
:100AE0000907C8631848C069012108431649C8614D
:100AF0000221152001F07CF9152001F0EDF8A1008C
:100B00000F4A50580022294600F0C4F8A1000C4AB0
:100B100050580621FFF755FF06E00A48401C00F038
:100B2000E3FA152001F0CEF800BF84E743414E5FA1
:100B3000496E69742825642C202564290A00000068
:100B400080000020180000404000005010B5024610
:100B5000102906DAFF202130805801238B401840ED
:100B600010BDFF20253080580B46103B01249C40CF
:100B70002040F5E7016841229143016000BF016810
:100B8000C907C90F0029FAD1704700007FB5044694
:100B90000E46761E1448844201D0012000E0002059
:100BA000054660681021084000280AD06068884324
:100BB00060606A463146204600F0E7F8684600F07B
:100BC00043FF60680821084000280CD06068884313
:100BD0006060AA00054B9958AA00D01800F0EDFEFD
:100BE000284600F005F87FBD000018409400002062
:100BF00070B50546002D01D11E4800E01E48044690
:100C0000606880210840002808D061681BA001F0BE
:100C10009BFE206841218843206070BDA8001B49CD
:100C20000858002823D0802000590121C90308401A
:100C300000281CD1A900154A5258FF21813169436F
:100C4000134BC918501A1821FFF77AFA06461036C6
:100C5000A8000E490A583146204600F087F920685E
:100C60000421084320603146204600F023FA00BFEB
:100C7000D3E700000000184000401840424F4646AD
:100C800028307825303278290A00000094000020AE
:100C9000042E0020F8B505460E4614463146284677
:100CA00000F08EF80746012C03D104212846FFF7F7
:100CB000B7FE3846F8BDF0B504460E4617461D4649
:100CC00031462046FFF742FF002800D1F0BD6068A2
:100CD000102188436060002F01D0042000E0002034
:100CE0007B21014384200151701C8021085100BFE9
:100CF000802000590121C90308400028F8D1942020
:100D0000005949100840002806D128709420005945
:100D1000C004400D686009E001202870942000594B
:100D2000C004C1089020005901436960982000590F
:100D30000007000FA8709C20005928729C200059C1
:100D4000FF2109020840010A6972A0200059A87217
:100D5000A0200059FF2109020840010AE972A420DD
:100D600000592873A4200059FF2109020840010AF4
:100D70006973A8200059A873A8200059FF2109020F
:100D80000840010AE9730120A0E770B504460E4649
:100D90001546206880210840002809D06069042198
:100DA0000840002804D029462046FFF743FD70BDC7
:100DB000F1B22B4601222046FFF77DFFF7E7000046
:100DC000F3B591B00E4664480E90002500200D90BA
:100DD0000C90002700240A9009907D20C000089004
:100DE0000020079000BF012003901198FFF70FFE2D
:100DF00001F02EFB00F096FA00210591049057486F
:100E0000864200D906465648864202D95548069081
:100E100009E05548864203D919204001069002E0B6
:100E200050487D300690312453E06008401C0B9000
:100E30000B98704302460023019005990498FFF730
:100E4000A9F9E10F091949104900611A02944718DC
:100E500000BF002F03D001208002874200D937E075
:100E600038460B994843C11702460B460191009042
:100E700005990498FFF78EF90F900F98351A002DF9
:100E800000DA6D420E98854200DD21E00E95002DBE
:100E900014D1E00F0019411009AB0AAA0294069878
:100EA00001F0E1FF079007990698451A002D00DA36
:100EB0006D420898854200DD0AE008952046E10F62
:100EC000091849100D910C97002D00D103E000BFC7
:100ED000641E062CA9D200BF09AB0AAA0D99069878
:100EE00001F0C1FF07900398042801D90420039062
:100EF00009990398814201D20998039009990A98A7
:100F00004018401C0C994843C11702460B460191FA
:100F1000009005990498FFF73DF906460998401E90
:100F200000030A99491E090208430C99491E8906C3
:100F3000890E08430399890108431199C8600C98E8
:100F4000401E8005010F119881611198FFF712FE74
:100F5000304613B0F0BD000000CA9A3B40420F007B
:100F600000350C00EE02000020A10700F7B5044692
:100F700015460026002706E07F1C01200007874257
:100F800001D90020FEBD204600F049FEC0B2064651
:100F90000228F1D0F32160207043224620328018CD
:100FA00041602878002811D100216020704380180A
:100FB0000161A8884005C00C01214903401889003F
:100FC0004118602070438018416116E0A88881B202
:100FD00060207043224620328018016130496868E1
:100FE0000840000C0121490340184900084349000A
:100FF00041186020704380184161687800280FD044
:101000006020704321462031401840690121490386
:1010100008436021714322462032891848610EE05E
:101020006020704321462031401840690121490366
:101030008843602171432246203289184861687ACA
:101040000002297A08436021714322462032891820
:10105000C861E87A0002A97A0843602171438918BF
:101060000862687B0002297B08436021714389186C
:101070004862E87B0002A97B08436021714389181C
:101080008862A878074908436021714389188861FC
:101090000198401C602171435050012072E700000C
:1010A0000000FF1F8088000010B504462046FFF7AF
:1010B0009FFD10BD024650680823984350600C23E2
:1010C00084208350481C8023985000BF8020805883
:1010D0000123DB0318400028F8D184235362481C05
:1010E00010620120704700001FB50C4C1ECC039409
:1010F0006C460EC4810F89006A465158084A891807
:101100004A68C306DB0E012199408A43810F89009A
:101110006B465958024BC9184A601FBD88340000FD
:101120000002005070B504460D46164628461021B0
:1011300008437101084305494862054800F00AF870
:1011400000222146024800F0A5FA70BD00020050BE
:10115000060020661FB50C4C1ECC03946C460EC4D2
:10116000810F89006A465158084A89184968C306A0
:10117000DB0E01229A401143820F92006B469A586F
:10118000024BD21851601FBD78340000000200509D
:10119000F3B589B00C460120000453490862099850
:1011A00000280ED108460068012108434E49086016
:1011B000012000F0F3FA002006904C480890022528
:1011C0000EE04948006804210843474908601020A0
:1011D00000F0E4FA0120C004069045480890042578
:1011E0004448844204D84010844201D9002712E0C8
:1011F0004148844205D84010844202D90127640046
:1012000009E03E48844205D84010844202D30327B7
:10121000A40000E057E00020C043039000200190AC
:10122000029034E029460898FEF78AFF0590344979
:10123000059888422AD933490598884226D2022047
:1012400007901EE0059E07994E432B48864215D312
:101250004000864212D8A64201D9301B00E0A01BF4
:10126000049003990498884208D204980390019549
:10127000079802900398002800D106E00798401CC8
:101280000790214907988842DCD900BF6D1C212DA9
:10129000C8D9B803069908430199891E4902084331
:1012A0000299891E084310490862042000F076FA6A
:1012B000781C019A504301460898FEF741FF0299B5
:1012C00048430BB0F0BD0998002803D10F480649E8
:1012D000086202E00E4804490862042000F05EFA49
:1012E00000F068F8EDE7000000020050001BB700B6
:1012F0000080510100C2EB0B00E1F50580F0FA021D
:10130000006A1800C0E1E400010200002EC20000E3
:101310006FD60800024909680143014A116070470D
:101320000002005010B501F093F80148006810BDAC
:1013300000000020FEB5002002901AA00068009076
:101340001948046A00132040002801D00020FEBD87
:101350000120C0042040002801D0144D00E0144DAD
:10136000012040042040002801D02846EFE7032058
:1013700080032040800B69460A5C0192E005C00DA5
:10138000861C1F2040022040400A871C019A7A4395
:101390001146AA0872431046FEF7D2FE8000029062
:1013A0000298D4E7010202040002005000805101BB
:1013B000001BB700FEB5002002901AA00068009044
:1013C0001948046A00132040002801D00020FEBD07
:1013D0000120C0042040002801D0144D00E0144D2D
:1013E000012040042040002801D02846EFE70320D8
:1013F00080032040800B69460A5C0192E005C00D25
:10140000861C1F2040022040400A871C019A7A4314
:101410001146AA0872431046FEF792FE8000029021
:101420000298D4E70102020400020050008051013A
:10143000001BB700FEB5002002901AA000680090C3
:101440001948046A00132040002801D00020FEBD86
:101450000120C0042040002801D0144D00E0144DAC
:10146000012040042040002801D02846EFE7032057
:1014700080032040800B69460A5C0192E005C00DA4
:10148000861C1F2040022040400A871C019A7A4394
:101490001146AA0872431046FEF752FE80000290E1
:1014A0000298D4E7010202040002005000805101BA
:1014B000001BB700FEB5002002901AA00068009043
:1014C0001948046A00132040002801D00020FEBD06
:1014D0000120C0042040002801D0144D00E0144D2C
:1014E000012040042040002801D02846EFE70320D7
:1014F00080032040800B69460A5C0192E005C00D24
:10150000861C1F2040022040400A871C019A7A4313
:101510001146AA0872431046FEF712FE80000290A0
:101520000298D4E701020204000200500080510139
:10153000001BB700F8B504463648C06810210840C3
:1015400007463548844200D904463448844200D2D4
:10155000044601263248844201D9502500E0002586
:10156000304880695021884350302E49886129488D
:101570000068042108432749086000BF2548C06867
:10158000102108400028F9D022480069C008C00096
:10159000C01D204908610846006AC90108431D4969
:1015A00008620846C068C007C00F00280FD01A485C
:1015B000844206D161000020FFF7EAFD04460226BE
:1015C00010E021460020FFF7E3FD04460AE0214633
:1015D0000120C004FFF7DCFD04460E48C06810215E
:1015E000084007460F4880695021884328430D4929
:1015F0008861711E022000F017F8002F05D1054800
:101600000068042188430349086031462046FEF7FC
:1016100097FDF8BD0002005000A24A0440787D0109
:1016200080F0FA0200C0005070B504460D4618481C
:10163000C068102108400646154800680421084388
:101640001349086000BF1248C068102108400028F4
:10165000F9D00F480069C008C000C01D0C490861DE
:10166000084680690009000128438861084600692E
:10167000C008C0002043086100F0EAFE002E05D13A
:1016800003480068042188430149086070BD0000D8
:1016900000020050F7B586B000220023394C2546E1
:1016A000E0CDE4680497039602950594354D103516
:1016B00030CD019500940401640F002C4AD08400C1
:1016C000A40FA40002AD2C592F4D62190401650F1F
:1016D000C401E40EA5401468AC430C4314602B4CC9
:1016E000A0420BD1284C103CE469FF250135AC43E6
:1016F0000D402C43244D103DEC612BE0244CA042C6
:101700000BD1214C103CE46901256D02AC430D4026
:101710002C431D4D103DEC611CE01E4CA0420BD132
:10172000194C103CE4690125AD02AC430D402C433B
:10173000154D103DEC610DE0174CA0420AD1124C42
:10174000103CE4690125ED02AC430D402C430E4DE5
:10175000103DEC618403240E002C11D00403A40F6F
:10176000A4006D462C59084D083563198403250ED5
:101770008405E40EA5401C68AC43089D2C431C6006
:1017800009B0F0BD60340000100200501400C057D2
:101790001500E05716004066170060660146074ACC
:1017A00005E01046521E002801DC00207047044866
:1017B000C06808408842F4D10120F7E7804F12004A
:1017C00000020050F8B505460E46002700F020F94B
:1017D000A8004B494018B04244D1306800280DD1D0
:1017E000FF2081306843474940183060012031684C
:1017F000087400203168486137687CE000240DE0FF
:10180000FF20813068433F49411818206043081881
:10181000007C002800D103E0601CC4B2102CEFDB78
:1018200000BF102C1CDA0121FF2081306843354AAB
:10183000821818206043101801740021FF208130A5
:101840006843304A82181820604310184161FF2015
:10185000813068432B494118182060430F184AE033
:10186000002748E0A80028494018B04243D130681A
:1018700000280DD1FF208130684324494018306092
:10188000012031680874002031684861376832E00F
:1018900000240DE0FF20813068431C4941181820C6
:1018A00060430818007C002800D103E0601CC4B22B
:1018B000102CEFDB00BF102C1CDA0121FF2081303F
:1018C0006843124A821818206043101801740021DE
:1018D000FF20813068430D4A821818206043101899
:1018E0004161FF2081306843084941181820604356
:1018F0000F1800E0002700F095F83846F8BD00000A
:101900008C000020042B002094000020042E0020D6
:1019100070B505460E4600F07BF8002414E0002167
:10192000FF20813068430C4A821818206043101849
:101930000174FF2081306843074A821818206043F1
:1019400010184161601CC4B2102CE8DB002030602C
:1019500000F068F870BD0000042E0020F8B50546C0
:101960000C462E68002D01D0002C00D1F8BD28684F
:10197000002801D12C60F9E72868A04200D1F5E7E2
:1019800000F046F8374611E070686168884202D876
:10199000374676690AE02868B04202D12C60666159
:1019A00001E07C61666100F03DF8DFE7002EEBD1DD
:1019B0007C6100F037F800BFD8E7F8B506460C4662
:1019C00035683068002801D0002C00D1F8BD30689F
:1019D000A04208D100F01CF860693060002020743B
:1019E00000F020F811E000F013F82F4601E02F4638
:1019F0006D69A54201D0002DF9D1002D03D0606999
:101A000078610020207400F00DF800BFDEE70000D0
:101A100072B603480068401C014908607047000026
:101A20007800002007480068002809D005480068B1
:101A3000401E0449086008460068002800D162B6CC
:101A40007047000078000020F8B504460026002703
:101A5000207A8021084000282DD0554800780028A1
:101A600059D1207A4006400E002854D10120504917
:101A70000870207B0002617B08434E4908800846BD
:101A80000088002803D100BF49490870F8BD4949C2
:101A90000988081D01F008FB0546002D07D146A066
:101AA00000F052FF0027002041490870EEE7281D92
:101AB000474908602FE03E480078012801D10127FE
:101AC00026E0207A4006400E002821D1207B00022B
:101AD000617B08433749088008460088002803D105
:101AE000002733490870D1E732490988081D01F001
:101AF000DBFA0546002D07D12FA000F025FF0027B7
:101B000000202B490870C1E7281D314908600127D2
:101B100000202749087026480078002801D1002FAE
:101B200031D0207A4006400EC100081A86B2FF204C
:101B30000130864203DC1F480088864207DB25A06F
:101B400000F002FF00201A49087000271BE020481F
:101B50000068002817D0F01D1649098888420ADD60
:101B6000144909888A1B1A490968881921460931CC
:101B7000FEF740FB07E0164909688819072221464D
:101B80000931FEF737FB012F10D1114800680028FA
:101B90000CD00F480068051F2946144801F0C4F90D
:101BA00000270020024908700949086000BF6DE75E
:101BB000AC000020A60000207561727420747820AB
:101BC00071756575652069732066756C6C210A00F6
:101BD000A80000204D7367206C656E6774682074E0
:101BE0006F6F206C6F6E672100000000DC28002002
:101BF00070B5034600200FE0012484400C40002C07
:101C000009D01C6846000325B540AC434600154684
:101C1000B5402C431C60401C1028EDD370BD01461C
:101C2000086A0122D2031040002800D170478020AA
:101C300040580122D2031040002801D10120F5E7CD
:101C40000220F3E772B60249086862B670470000E6
:101C5000440000200146080E8001014A80187047A8
:101C600000400050044604A000F06EFE204601F043
:101C70003FFB00BFFEE70000496E20486172642010
:101C80004661756C742048616E646C65720A000070
:101C900010B500F049FA0848FFF75CFA002201216C
:101CA00049030548FFF7F6FC044A0021044800F008
:101CB00045FC00F01BFA10BD0300C05E40420F005F
:101CC00020000140C206D20E01219140014A11605C
:101CD0007047000080E100E0C206D20E0121914071
:101CE000014A11607047000000E100E0C206D20E18
:101CF00001219140014A11607047000000E100E0BD
:101D000010B5002819DA1A4A03071B0F083B9B0875
:101D10009B00D2588307DC0EFF23A3409A438B0716
:101D20001B0E8407E40EA3401A43114B0407240F33
:101D3000083CA408A4001A5118E00E4A03231B0211
:101D4000D21883089B00D2588307DC0EFF23A340E0
:101D50009A438B071B0E8407E40EA3401A43054BDE
:101D6000032424021B198408A4001A5110BD00008A
:101D70001CED00E000E100E010B5002819DA1A4A75
:101D800003071B0F083B9B089B00D2588307DC0E00
:101D9000FF23A3409A438B071B0E8407E40EA34046
:101DA0001A43114B0407240F083CA408A4001A513D
:101DB00018E00E4A03231B02D21883089B00D25856
:101DC0008307DC0EFF23A3409A438B071B0E840777
:101DD000E40EA3401A43054B032424021B19840874
:101DE000A4001A5110BD00001CED00E000E100E06D
:101DF00010B5002819DA1A4A03071B0F083B9B0885
:101E00009B00D2588307DC0EFF23A3409A438B0725
:101E10001B0E8407E40EA3401A43114B0407240F42
:101E2000083CA408A4001A5118E00E4A03231B0220
:101E3000D21883089B00D2588307DC0EFF23A340EF
:101E40009A438B071B0E8407E40EA3401A43054BED
:101E5000032424021B198408A4001A5110BD000099
:101E60001CED00E000E100E038B504461E48FFF735
:101E700071F9002211461C48FFF70CFC05200007F1
:101E8000006B0321090388430521090708630846FD
:101E9000006B032109030843052109070863134860
:101EA0000069134908401149086108460069086142
:101EB00008468069602188430C498861084680692A
:101EC000032189020843094988612146094800F035
:101ED00063F80120C00300231A46214600900548FC
:101EE00000F074F838BD000002FE47B64000005014
:101EF000FBF7FFFF008019400EB505A207CA6B462D
:101F000007C30C226946054800F086F80EBD0000A4
:101F100055010001000100010004FEFF008019408E
:101F2000F8B507461648874201D1002405E0154858
:101F3000874201D1012400E002241348406B610074
:101F4000C8408607B60F002E01D1104D0BE0012EC0
:101F500003D1FFF7AFFA054605E0022E02D10C4887
:101F6000056800E00B4D0848806BE200D040C0B22D
:101F7000411C2846FEF7E4F805462846F8BD000057
:101F8000000019400040194000020050001BB7003B
:101F90000000002000805101F8B504460D4620469F
:101FA000FFF7BEFF064669088919481E2946FEF755
:101FB000C7F8471E04486060412060636761791C70
:101FC0003046FEF7BDF8F8BD01800000FFB581B0D6
:101FD00004460E4617462046FFF7A2FF0090002E4B
:101FE00003D1606905052D0D08E0720800995118AC
:101FF000481E3146FEF7A4F8451E656101210A9886
:10200000084360600498384308436063691C009883
:10201000FEF796F805B0F0BD30B50B46002109E09B
:1020200000BF046A0125AD022C40002CF9D15C5C94
:102030000460491C9142F3D130BD000010B504206A
:10204000FFF768F91020FFF7A9FB0120FFF762F9FD
:102050000120FFF7A3FB1F48FFF76CFA2B20400677
:10206000FFF778F8002203210820FFF75BF81A48F1
:10207000FFF770F83B22520400211748FFF70AFBD4
:102080000120FFF767F815487D21C90004684C431B
:102090001348844200D90EE02002000A401E114974
:1020A00048610321081FFFF72BFE00200D498861BE
:1020B0000720086100BF0121881EFFF721FE0020D4
:1020C000C043C206D20E01219140074A116000BFF1
:1020D00010BD000000A24A041CFE2356040000208C
:1020E000FFFFFF0000E000E000E100E00020014908
:1020F0000860704700010050010E05221207891880
:102100008968012282401143020E05231B07D21861
:102110009160010E1A4689188A68012181408A431C
:10212000010EC9188A60704706E059200549086009
:102130001620086088200860024800680128F4D151
:10214000704700000001005000B5034603480078C6
:10215000002802D0184600F003F800BDB8000020A7
:1021600000BF0B4989690122D20511400029F8D12D
:10217000074908600A280AD100BF05498969012278
:10218000D20511400029F8D10D21014A1160704794
:102190000000054010B5FF2072B600210EE01422A9
:1021A0004A43094B9A5C002A06D1084601231422AF
:1021B0004A43054CA35403E04A1CD1B20529EEDB87
:1021C00000BF62B610BD0000F828002000201AE011
:1021D0000022142141430D4B5A5414214143C91884
:1021E0004A6014214143C9188A6014214143C91827
:1021F0008A7014214143C9184A7014214143C918F7
:10220000CA60411CC8B20528E2DB7047F8280020EC
:10221000F8B504460D4616461F46052C05DB22463A
:1022200019491AA000F090FBF8BD142060431D4925
:102230004018C068002806D0142060434018806809
:10224000002800D0F0E772B614206043154940180A
:1022500045601420604340188560002114206043CD
:10226000104A80188170142060431146401846704F
:10227000142060434018C7601421614389180698F0
:10228000086162B600BFCFE71D340000257328291E
:1022900020696E76616C69642069643D25640D0A6D
:1022A00000000000F828002070B563480068401C5A
:1022B0006149086061480068002809D05F480068EB
:1022C000401E5E490860002802D101205C49087068
:1022D00000241BE0142060435A4945182878002840
:1022E00011D0686800280ED06868401E6860002819
:1022F00009D10120A870E968286988476878012811
:1023000001D1A868686000BF601CC4B2052CE1DB85
:1023100000248CE020014C4940188089002870DDA1
:1023200020014018C0892101474A8918098988423B
:1023300007DA2001114640188088210151580860B1
:102340006AE0200140494018C08921013E4A8918AD
:10235000498988420DDA20011146401880880028FA
:1023600001D1012000E000202101374A51580860C6
:1023700052E02001344940180089002804D020018F
:102380004018408900280DD120012F49401880882D
:10239000002801D1012000E0002021012A4A5158E3
:1023A000086007E020012849401880882101264A5A
:1023B00051580860200124494018808923498842E7
:1023C00025D02001204940188089401E21011E4A45
:1023D000891888812001114640188089002816D16B
:1023E00020014018C088002803D0200140188088B0
:1023F00009E02001144940188088002802D10120FA
:1024000001E012E0002021010F4A5158086000202D
:1024100021010D4A8918C88120010B494018C08943
:10242000401C2101084A8918C881601CC4B2022CD2
:1024300000DA6FE770BD0000440000204800002073
:102440004C000020F828002058000020FFFF00006A
:1024500070B5FEF76FFF1149086011480069450724
:102460006D0F022D03D0A8000E490C5801E00B4857
:1024700004680B4880690007000F461C314620465F
:10248000FDF75EFE084908600849074800684A10E1
:102490008018FDF755FE0649086070BD0800002051
:1024A000000200500C0000200000002040420F00FD
:1024B000040000207047000030B589B00546202296
:1024C000194901A8FDF796FE1848854206D118481B
:1024D0004069072109020840040A1AE01348203025
:1024E000854206D112484069072109030840040BC0
:1024F0000FE01048854206D10D48406907210904C4
:102500000840040C05E00A48406907210905084015
:10251000040D022C03D10848006809B030BDA000AA
:1025200001A90858F9E700009834000000000140B4
:10253000000200500000114000000020F7B582B0FA
:10254000064617463046FFF7B7FF019000240025E6
:1025500001984008B84201D202240CE039460198A3
:10256000FDF7EEFD0446250E002D04D0691C204623
:10257000FDF7E6FD04460398284330607460681C4C
:10258000604301460198FDF7DBFD05B0F0BD00009A
:1025900010B5FFF71BFEFFF77BFBFFF7C5FD05201E
:1025A0000007406BFF21013188430521090748637B
:1025B0000846406BFF2101310843052109074863A4
:1025C0000A4800690121490788430849086108460B
:1025D0000069C90508430549086100220321082054
:1025E000FEF7A0FDFFF782FD10BD00004000005087
:1025F000024840680148C06970470000000005407B
:1026000010B5064840680549C96908408007800F31
:10261000002802D0014800F0D7F810BD0000154096
:1026200070B504460D4660682843606008488442DF
:1026300003D10C20FFF75AFB09E00648844203D17E
:102640000D20FFF753FB02E00C20FFF74FFB70BD9E
:102650000000054000001540F0B587B004460D4667
:10266000274801460EC9C06803AE0EC6069000207A
:10267000029024484069032109060840060E2148BB
:1026800080690F2109020840070A00202063032007
:10269000E060A0681C490840A060012E04D1FEF74C
:1026A000C9FEB10003AA5050002D26D0B10003AAE4
:1026B0005058791CFDF744FD6908401829460190DF
:1026C000FDF73EFD801E02901049029888420FD906
:1026D000B10003AA5058791CFDF732FDE9004018FB
:1026E00029460190FDF72CFD0009801E606204E080
:1026F0000321090702980843606207B0F0BD00009B
:10270000B8340000000200500FFFF0FFFFFF000090
:10271000FFB587B004460D461746284801460EC946
:10272000C06802AE0EC605900020019024484069A2
:10273000032109060840060E214880690F2109027D
:102740000840000A0690012E04D1FEF773FEB10086
:1027500002AA5050002D28D0B10002AA5058069964
:10276000491CFDF7EDFC6908401829460090FDF76B
:10277000E7FC801E019013490198884210D9B100EE
:1027800002AA50580699491CFDF7DAFCE9004018E6
:1027900029460090FDF7D4FC0009801E606204E029
:1027A0000321090701980843606238460A990843E3
:1027B00010990843E0600BB0F0BD0000C834000081
:1027C00000020050FFFF0000F8B50746474C84E0C8
:1027D0003868C5B2A07E6840A076E08A030000F0A9
:1027E000DFF80504111E1F205600512D06D1E18A85
:1027F000481CE08220461030455402E00020A076BC
:10280000E08269E0A52D06D1E18A481CE0822046DD
:102810001030455402E00020A076E0825CE000BF6A
:1028200000BFE18A481CE082204610304554E08A0F
:1028300005282BD1E08A801E21461031085C000259
:10284000E18A491E22461032515C08432083208BC6
:10285000FF210131884203DD0020E082A07615E0EF
:10286000218B081D00F020FC0646002E04D1E082DA
:10287000A076E060208309E0301DE0600020306039
:10288000E28A21461031E068FDF7B4FC24E0E068FC
:10289000002820D0E18A481CE082E0684554E08AA4
:1028A000218B884217DBA07E002806D1E068061F36
:1028B0003146201D00F038FB08E0A07E684001464C
:1028C0000BA000F041F8304600F004FB0020E0824D
:1028D000A076E060208300BF00BFB86901218903B2
:1028E0000840002800D173E7F8BD0000D42800207C
:1028F00063686B73756D206572722C2065787065E6
:1029000063743A203078253032780A0010B5FFF72A
:102910000BFC054800682C2188430121084302492B
:102920000860FFF7E3FB10BD0040004030B5054CE8
:1029300061608024044355002C431D012C43014D4C
:102940002C6030BD004000400FB410B503A9044B0B
:10295000044A029800F042F810BC08BC04B01847C2
:10296000C52E0000B00000200FB47CB50C0009ADEE
:1029700001D0611E00E0002101910090074B6A46E2
:102980002946089800F02AF8002C02D0009A00216D
:1029900011707CBC08BC04B018470000512E000028
:1029A00030B47446641E2578641CAB4204D3635D66
:1029B0005B00E31830BC18471D46F8E702E008C882
:1029C000121F08C1002AFAD170477047002001E0A9
:1029D00001C1121F002AFBD170470000FFB591B062
:1029E0000F460546002606E025280AD0149A1399BA
:1029F00090476D1C761C28780028F5D1304615B01C
:102A0000F0BD002400940121F34A029400E0044345
:102A10006D1C2B780846203B98401042F7D128784F
:102A20002A280ED00222287801463039092915D8E3
:102A300000990A2359433039401814436D1C009003
:102A4000F1E701CF0090002805DA0120400304439C
:102A5000009840420090022004436D1C28782E28E4
:102A600015D10420044368786D1C2A280AD101CFAF
:102A70006D1C02900BE002990A2251433039401834
:102A80006D1C02902878014630390929F3D928783D
:102A90006C2810D006DC4C281AD068280ED06A2882
:102AA00017D104E0742813D07A2812D110E0012045
:102AB000400504430CE00121090501E0032109055B
:102AC0000C436978814203D10120000524186D1C54
:102AD0006D1C28786E281ED00CDC632831D004DCF5
:102AE00000288BD0582811D1B2E064287BD0692807
:102AF0000CD178E073282DD004DC6F2870D07028BA
:102B000004D1A7E075286CD078286BD0149A13995B
:102B10009047761C62E06002400F022807D003282D
:102B20000AD0042838680AD006603F1D56E038688D
:102B3000F11706604160F8E738680680F5E706702F
:102B4000F3E73878694608740020487404A80390B5
:102B5000012003E0386803900020C0433F1D610757
:102B60000FD5002101E00199491C029A019191427F
:102B700013DA8142F7DB019A0399895C0029F2D1CB
:102B80000BE0002101E00199491C01918142FADB2F
:102B9000019A0399895C0029F5D101990098139A4B
:102BA000401A00902146149B00F03CF901998019CD
:102BB000461807E0039803990078491C0391149A7A
:102BC000139990470198401E0190401CF2D1214674
:102BD000149B139A009800F015F986196D1C0AE7EA
:102BE00041E033E034E00A200021049005916002C6
:102BF000410F022905D001CFC2179446032905D001
:102C000007E0FF1DFF08FF0003CF06E000B2C21778
:102C10009446042902D140B2C1178C460022614675
:102C2000944506DA0A460021404291418C462D2106
:102C300002E0210504D52B216A461176012103E02B
:102C4000E10701D02021F7E7019155E00A200BE0D0
:102C5000102009E0102004900021042004430820E3
:102C60000591029003E00820002105910490600284
:102C7000410F022905D001CF00229446032906D036
:102C800006E0FF1DFF08FF0003CF8C4603E080B283
:102C9000042900D1C0B20021019121072CD5297847
:102CA0000391702906D0049A1021059B4A401A43CB
:102CB00005D00EE040216A461176012108E0614608
:102CC000014306D030216A461176039951760221DC
:102CD0000191049A0821059B4A401A430CD1614690
:102CE000014301D1610707D530216A4611760121E0
:102CF00001910299491E02912978582904D037A1DF
:102D000003910FA90F910DE039A1F9E76146059BE9
:102D1000049AFDF73FFA039B8C469B5C0F9A521E68
:102D20000F92137061460143F0D10F9807A9081A5A
:102D300020300390600704D50120000484430298EA
:102D400001E0012002900399884201DD401A00E071
:102D5000002041180290019809180098401A00902C
:102D6000E00306D42146149B139A009800F05AF809
:102D700086190020049008E006A9085C149A1399AB
:102D800090470498401C761C049001998842F3DB1C
:102D9000E0030CD52146149B139A009800F042F8EA
:102DA000861904E0149A302013999047761C0299F2
:102DB000481E02900029F5DC08E00F980F99007872
:102DC000491C0F91149A13999047761C0399481E39
:102DD00003900029F1DCFAE6092801003031323392
:102DE0003435363738396162636465660000000047
:102DF0003031323334353637383941424344454631
:102E000000000000F8B5044600251E461746880459
:102E100004D405E039462020B0476D1C641EF9D566
:102E20002846F8BDFFB50446002581B01E46C803FC
:102E300001D5302700E02027880404D505E0384676
:102E40000399B0476D1C641EF9D5284605B0F0BD46
:102E50004A68002A06D00A68531C0B601070486844
:102E6000401E48607047F8B507460D4616461C469A
:102E7000691C794308467D21C900FDF777F9691C73
:102E8000081A20602068002801D1012020602068F5
:102E9000082801D9082020602068281A306030688E
:102EA000102804D9102030603068281A2060691C6E
:102EB0002268891A7D22D20051430846691CFDF719
:102EC00055F9F8BD30B504460D462046FFF73CF9EC
:102ED000204630BD10B5002823D0124B0022001F21
:102EE000196803E0814203D80A4649680029F9D1EC
:102EF000002A0AD01368841A9C4204D1006818186A
:102F00001060104602E0506000E01860002907D011
:102F100002680B1A934203D10B68D2180260496809
:102F2000416010BDBC00002070B504460D46002D68
:102F300013D0002C11D0FEF76BFD2068002801D1C2
:102F4000256006E0266800E0366830680028FBD17E
:102F5000356000202860FEF765FD70BD1CB50027B8
:102F60000520019000250020009000BF06E05920B8
:102F70004149086016200860882008603E480068C3
:102F80000128F4D100BFFFF759F800BF00203A49EB
:102F9000086000BF00230122114605200002FFF750
:102FA000C5FCFFF7F5FAFDF7FDFA052000F0B2F8D1
:102FB000FDF77CFA31A0FFF7C7FCFDF7E7F93449CC
:102FC0000020FDF733FD33A0FFF7BEFCFFF79EFCAA
:102FD00051E0FEF737FE0446A01B0A284BD92646CF
:102FE0002E48C06A002804D101202C498031886114
:102FF0000AE00020294980318861294800680028BA
:1030000002D19620264908602448C06A002801D1D0
:10301000012000E0002005460098A84217D0012DAD
:1030200004D100201F490870009510E01C4800687A
:1030300000280CDD1A480068401E1949086008463F
:103040000068002803D10120164908700095384611
:10305000791C8FB20A2802DDFEF74EFF0027019887
:10306000411C89B201910A2803DD00F079F80020A3
:103070000190FFF74BFCACE7000100500A0A0A0A76
:1030800053797374656D20737461727475700A007E
:1030900020A107004F4B210A000000000042005011
:1030A000340000202C000020F0B50B30C108C9000E
:1030B000144F0026144A0FE003688B420BD38B4257
:1030C00005D95C1A4318456830C3083B00E04368E3
:1030D000136002C004E0021D10680028ECD13046E5
:1030E000002803D13868002801D00020F0BD064A2E
:1030F00006481060064A121AD208D20044C00120C5
:103100003860D7E7C0000020BC0000202431002038
:1031100020310020002800D1704772B606490860AF
:103120000021064A117062B600BF044909780029DF
:10313000FBD000BFF0E70000480000204C0000205A
:1031400010B5044601E0FFF7BDFE2078641C03497A
:103150000028F8D10A20FFF7B5FE10BDB00000200E
:10316000F8B50720FDF7C6F887B20620FDF7C2F8CC
:1031700086B24E480078012809D14D480178006890
:10318000401C4B4A10604807000F4A490E524A48FB
:1031900000784649097888424AD044480078002897
:1031A00036D10A204549086000204549088040483A
:1031B0000068082818D2002509E068003D49085A2F
:1031C0003F49098840183E490880681C85B2384844
:1031D00000688542F1D33648016839480088FCF719
:1031E000AFFF374908801FE0002509E0680031493A
:1031F000085A33490988401831490880681C85B24B
:10320000082DF3DB2E480088C0102D4908800BE004
:1032100000202B4908802649086010212548FDF729
:1032200002F80020254908602048007822490870EB
:1032300024490020FEF7C6FA0446002C28D08D2031
:103240008000606001206070002020700820A07065
:103250001A480068002801D0012000E000202072F8
:1032600039126172A77215480068002801D014480D
:1032700006883112E172267300216173A173E17334
:1032800021461048FEF76AFB0020FDF70DFF02E023
:103290000DA0FFF759FB09480068002804D0074833
:1032A0000068401E05490860F8BD00002C000020A1
:1032B00038000020C42800202D0000203C00002001
:1032C000400000209400002043414E312073656E81
:1032D000642071756575652069732066756C6C2C4A
:1032E0002064726F70207061636B65740A00000067
:1032F00010B5044624A2102126482368FFF734FBAA
:103300002448FFF71DFF24A2102122486368FFF71D
:103310002BFB2048FFF714FF22A210211D48A368B1
:10332000FFF722FB1B48FFF70BFF21A210211948D2
:10333000E368FFF719FB1748FFF702FF1FA21021F0
:1033400014482369FFF710FB1248FFF7F9FE1EA28D
:10335000102110486369FFF707FB0E48FFF7F0FEE6
:103360001CA210210B48A369FFF7FEFA0948FFF7DA
:10337000E7FE1BA210210748E369FFF7F5FA0548AD
:10338000FFF7DEFE10BD0000723020203D203078B7
:1033900025780A0004310020723120203D20307849
:1033A00025780A00723220203D20307825780A00E6
:1033B000723320203D20307825780A007231322087
:1033C0003D20307825780A006C7220203D2030782E
:1033D00025780A00706320203D20307825780A0087
:1033E000707372203D20307825780A0000030306B0
:1033F00001040602050003051F1C1F1E1F1E1F1FC0
:103400001E1F1E1F536F667454696D657253657479
:103410005072656C616F6456616C756500536F66C0
:103420007454696D6572537461727400536F66747D
:1034300054696D657253746F7000536F667454698C
:103440006D657252656C6F616400536F6674546988
:103450006D6572436865636B54696D656F75740063
:1034600000000000040000000C0000002400000028
:103470000000000020000000000000000400000028
:103480002C0000000000000000000000040000000C
:103490002C00000000000000001BB70000800000AE
:1034A00000000000000000000000000010270000E5
:1034B0000000000000805101001BB7000000000068
:1034C0000000000000805101001BB7000000000058
:1034D0000000000000805101001BB7000000000048
:1034E00000000000008051010835000000000020AD
:1034F000C4000000BC290000CC350000C40000203E
:103500005C340000CC29000080F0FA023200000098
:1035100080F0FA02001BB7000080000080F0FA0281
:103520001027000000000000000000000000000064
:1035300000805101000000000000000000000000B9
:10354000000000000000000000000000000000007B
:10355000000000000000000000000000000000006B
:10356000C842005001000000000000000000000000
:10357000CC420050010000000000000000000000EC
:1035800000000000FFFF000000001840004018404D
:10359000FFFF00000000000000000000000000002D
:1035A000000000000000000000000000000000001B
:1035B000000000000000000000000000000000000B
:0C35C000010000000000000000000000FE
:04000005000000F502
:00000001FF
